:100000000C94B3000C94D4000C94D4000C94D40041
:100010000C94D4000C94A6010C9481010C94D4008F
:100020000C94D4000C94D4000C94D4000C94D40000
:100030000C94D4000C94D4000C94D4000C94D400F0
:100040000C94D4000C94D4000C94D4000C94D400E0
:100050000C94D4000C94D4000C94D4000C94D400D0
:100060000C94D4000C94D4000C94D4000C94D400C0
:100070000C94D4000C94D4000C94D4000C94D400B0
:100080000C94D4000C94D4000C94D4000C94D400A0
:100090000C94D4000C94D4000C94D4000C94D40090
:1000A0000C94D4000C94D4000C94D4000C94D40080
:1000B0000C94D4000C94D4000C94D4000C94D40070
:1000C0000C94D4000C94D4000C94D4000C94D40060
:1000D0000C94D4000C94D4000C94D4000C94D40050
:1000E0000C94D40007634236B79BD8A71A396856D8
:1000F00018AEBAAB558C1D3CB7CC5763BD6DEDFD4A
:10010000753EF6177231BF000000803F0800000006
:10011000BE922449123EABAAAA2ABECDCCCC4C3EFC
:1001200000000080BEABAAAAAA3E00000000BF00EB
:100130000000803F0000000000084178D3BB4387E7
:10014000D1133D190E3CC3BD4282AD2B3E68EC82FB
:1001500076BED98FE1A93E4C80EFFFBE01C4FF7F80
:100160003F000000000011241FBECFEFD1E2DEBF30
:10017000CDBF00E00CBF12E0A0E0B2E0E8EBFAE295
:1001800000E00BBF02C007900D92A030B107D9F775
:1001900012E0A0E0B2E001C01D92AB31B107E1F77F
:1001A0000E94CD110C945A150C94000010BA11BA8B
:1001B00010920701109208010895259A2D9A08952A
:1001C000269A2E9A0895279A2F9A0895EAE7F0E042
:1001D000108210927B0080E280937C0080E880BFD8
:1001E00086E8808308950F931F93682F70E080E066
:1001F00090E00E9404132FEE39EC43E95FE30E9484
:10020000F513B62FA72F382F292F60E070E080E874
:100210009FE3422F0B2F1A2F232F342FA901980170
:100220000E946B122AE939EF4EE255E40E949213C4
:1002300020E030E040E251E40E9492130E94D31289
:10024000882777FD8095982F0E9406130E94D3126D
:10025000862F972F23E08132920710F080E293E0FF
:100260001F910F9108956F98779A089581B18F60CB
:1002700081B982B1807F82B9EAE0F1E08081886152
:100280008083EBE0F1E08081886180830895E1E084
:10029000F1E080818C608083E2E0F1E08081837F07
:1002A00080839A9AA29808956C98749A08956D988C
:1002B000759A08950E9436010E9454010E945701C8
:1002C00008950E9433010E9447010E94D6000895BC
:1002D0000E94DD000E94E0000E94E3000895F8946F
:1002E000EAE6F0E0808182608083EC9A7894089559
:1002F000F894EAE6F0E0808188608083ED9A789453
:1003000008951F920F920FB60F9211248F939F930F
:10031000AF93BF938091000290910102A0910202DD
:10032000B09103020196A11DB11D8093000290932C
:100330000102A0930202B0930302BF91AF919F917B
:100340008F910F900FBE0F901F9018951F920F92D4
:100350000FB60F9211248F939F93AF93BF93809109
:10036000040290910502A0910602B0910702019645
:10037000A11DB11D8093040290930502A093060273
:10038000B0930702BF91AF919F918F910F900FBED5
:100390000F901F90189592B1907F8F70982B92B903
:1003A000089586E00E94CB01089589E00E94CB0168
:1003B000089585E00E94CB0108958AE00E94CB0158
:1003C000089584E00E94CB01089582E00E94CB0151
:1003D000089581E00E94CB01089588E00E94CB013E
:1003E000089580E00E94CB0108950F931F93CF934F
:1003F000BC0180E090E00E94041328E431EE42E862
:1004000050E40E946B120E94D812DC01CB01A0E0E4
:10041000B0E01092000210920102109202021092BB
:10042000030210920402109205021092060210922A
:100430000702F1E0C0E0409100025091010260919A
:1004400002027091030200910402109105022091B2
:10045000060230910702EF2F481759076A077B07FA
:1004600008F4EC2FEE2349F44F2F081719072A0739
:100470003B0708F44C2F4423F1F20E94F101CF9185
:100480001F910F910895BC0180E090E00E94041339
:1004900025EE30ED4AEA50E40E946B120E94D81219
:1004A000462F572F682F792F1092000210920102C9
:1004B00010920202109203028091000290910102B8
:1004C000A0910202B0910302481759076A077B07FF
:1004D00098F70E94F1010895BC0180E090E00E942D
:1004E000041325EE30ED4AEA50E40E946B120E949C
:1004F000D812462F572F682F792F10920002109292
:100500000102109202021092030280910002909167
:100510000102A0910202B0910302481759076A072D
:100520007B0798F70E94F10181E090E00895CF9356
:10053000DF93EC010E94D101CE010E944302DF91C2
:10054000CF910895CF93DF93EC010E94D501CE01A6
:100550000E944302DF91CF910895CF93DF93EC0186
:100560000E94D901CE010E94F501DF91CF9108953B
:10057000CF93DF93EC010E94DD01CE010E94F501D3
:10058000DF91CF910895CF93DF93EC010E94E101B9
:10059000CE01880F991F0E94F501DF91CF91089538
:1005A000CF93DF93EC010E94E501CE01880F991FE4
:1005B0000E94F501DF91CF910895CF93DF93EC0175
:1005C0000E94E901CE01880F991F0E94F501DF9179
:1005D000CF910895CF93DF93EC010E94ED01CE01FE
:1005E000880F991F0E94F501DF91CF910895F8942B
:1005F0000E945A010E946F010E9478017894089528
:10060000E1E8F0E010828CEF8093850081E0809338
:10061000840093E0909389008FEF809388009093FB
:100620008B0080938A0090938D0080938C00909330
:100630008700809386008BEA80938000109282006E
:100640008CE080830895E1E2F1E010828FEF8093E7
:10065000250191E0909324011092290180932801B3
:1006600010922B0180932A0110922D0180932C016E
:1006700089EA809320018BE080830895809328018C
:1006800060932A010895F8940E9468010E94000373
:1006900078940895F8940E9423030E94E6007894C9
:1006A000089510928900682F70E080E090E00E9429
:1006B00004132BE734E14EEE5FE30E946B1220E05F
:1006C00030E04CE052E40E9407120E94D81260937E
:1006D0008800089510928B00682F70E080E090E011
:1006E0000E9404132BE734E14EEE5FE30E946B128D
:1006F00020E030E04CE052E40E9407120E94D81241
:1007000060938A00089510928D00682F70E080E059
:1007100090E00E9404132BE734E14EEE5FE30E9469
:100720006B1220E030E04CE052E40E9407120E947D
:10073000D81260938C00089583E0809389008FEF36
:1007400080938800089583E080938B008FEF8093DF
:100750008A00089583E080938D008FEF80938C0052
:100760000895883018F098E090937B00877080623D
:1007700080937C00EAE7F0E0808180648083808160
:1007800084FFFDCF80917900EAE7F0E090819061ED
:10079000908310927B0008958AE50E9451038FEFA9
:1007A0009FEFA9E581509040A040E1F700C0000014
:1007B0008BE00E9451038FEF9FEFA9E5815090409D
:1007C000A040E1F700C0000084EB0E946A038FEFB5
:1007D0009FEFA9E581509040A040E1F700C00000E4
:1007E0000E9443038AE50E9451038FEF9FEFA9E522
:1007F00081509040A040E1F700C0000080E00E94DE
:100800006A030E94F1010895CF92DF92EF92FF9266
:100810001F93CF93DF93BC0180E090E00E9404130C
:1008200025EE30ED4AEA50E40E946B120E94D81285
:10083000C62ED72EE82EF92E109200021092010239
:10084000109202021092030210E083E00E94B103B2
:10085000C82F81E00E94B103D82F82E00E94B1032B
:1008600040910002509101026091020270910302D6
:1008700091E0C416D506E606F70608F0912FC832B7
:1008800058F4D83248F4893238F0992329F48FEF9C
:100890006FEF0E943E03D9CF8832B0F4D83248F4CB
:1008A000C93238F0992329F4812F6FEF0E943E035B
:1008B000CCCFC83248F4D93238F0992329F48FEFDD
:1008C000612F0E943E03C1CF913009F0BECF0E943C
:1008D000F1018FEF6FEF0E943E03DF91CF911F91E7
:1008E000FF90EF90DF90CF900895CF93DF9383E058
:1008F0000E94B103C82F81E00E94B103D82F82E08B
:100900000E94B103893220F0C93208F5D932F8F4D7
:10091000C83248F4D83238F4893228F08FEF6FEFBC
:100920000E943E03E4CF883210F7D83238F4C9323F
:1009300028F080E06FEF0E943E03D9CFC832B8F6AE
:10094000D932A8F28FEF60E00E943E03D0CF0E9420
:10095000F1018FEF6FEF0E943E03DF91CF91089579
:1009600089E00E94B103809318020E94F3009093E3
:100970001A0280931902C3978336910508F0F4C0D8
:100980008FEF6FEF0E943E030E94D10180E290E062
:100990000E9404040E94F1018FEF9FEBA1E28150BD
:1009A0009040A040E1F700C000008DE590E00E947B
:1009B000AD020E94F1018FEF9FEBA1E281509040C8
:1009C000A040E1F700C000008FEF6FEF0E943E03F0
:1009D0000E94D5018FE090E00E9404040E94F10182
:1009E0008FEF9FEBA1E281509040A040E1F700C063
:1009F00000000E94CC030E94F1018FEF9FEBA1E267
:100A000081509040A040E1F700C000000E94D50155
:100A100086E490E00E9404048FEF6FEF0E943E0393
:100A20000E94D10188E290E00E9404040E94F1013A
:100A30008FEF9FEBA1E281509040A040E1F700C012
:100A400000000E94D10183E290E00E9404040E9411
:100A5000F1018FEF9FEBA1E281509040A040E1F7C0
:100A600000C000008DE590E00E94AD020E94F101FF
:100A70008FEF9FEBA1E281509040A040E1F700C0D2
:100A800000008FEF6FEF0E943E030E94D1010E9491
:100A900075040E94F1018FEF9FEBA1E2815090401D
:100AA000A040E1F700C000008FEF6FEF0E943E030F
:100AB0000E94D10188E290E00E9404040E94F101AA
:100AC0008FEF9FEBA1E281509040A040E1F700C082
:100AD00000008FEF6FEF0E943E030E94D1010E9441
:100AE00075040E94F1018FEF9FEBA1E281509040CD
:100AF000A040E1F700C000008FEF6FEF0E943E03BF
:100B00000E94D10188E490E00E9404040E94F10157
:100B10008FEF9FEBA1E281509040A040E1F700C031
:100B200000008DE590E00E94B8020E94F1018FEF75
:100B30009FEBA1E281509040A040E1F700C000008F
:100B40008FEF6FEF0E943E030E94D1010E94750457
:100B50000E94F1018FEF9FEBA1E281509040A040F5
:100B6000E1F700C0000008950E94F1018FEF9FEBB4
:100B7000A1E281509040A040E1F700C000008AE56A
:100B800090E00E94B8020E94F1018FEF9FEBA1E27A
:100B900081509040A040E1F700C000008AE590E05D
:100BA0000E94B8020E94F1018FEF9FEBA1E28150F9
:100BB0009040A040E1F700C000008FEF6FEF0E946F
:100BC0003E030E94D1010E9475040E94F1018FEF43
:100BD0009FEBA1E281509040A040E1F700C00000EF
:100BE0008FEF6FEF0E943E030E94D10188E290E0F8
:100BF0000E9404040E94F1018FEF9FEBA1E281505B
:100C00009040A040E1F700C000008FEF6FEF0E941E
:100C10003E030E94D1010E9475040E94F1018FEFF2
:100C20009FEBA1E281509040A040E1F700C000009E
:100C30008FEF6FEF0E943E030E94D10188E490E0A5
:100C40000E9404040E94F1018FEF9FEBA1E281500A
:100C50009040A040E1F700C000008DE590E00E94C8
:100C6000B8020E94F1018FEF9FEBA1E2815090400A
:100C7000A040E1F700C000008FEF6FEF0E943E033D
:100C80000E94D1010E9475040E94F1018FEF9FEB39
:100C9000A1E281509040A040E1F700C0000008951B
:100CA0008FEF6FEF0E943E030E94D10180E290E03F
:100CB0000E9404040E94F1018FEF9FEBA1E281509A
:100CC0009040A040E1F700C000008DE590E00E9458
:100CD000B8020E94F1018FEF9FEBA1E2815090409A
:100CE000A040E1F700C000008FEF6FEF0E943E03CD
:100CF0000E94D5018FE090E00E9404040E94F1015F
:100D00008FEF9FEBA1E281509040A040E1F700C03F
:100D100000000E94CC030E94F1010E94D5010E94B4
:100D200075048FEF6FEF0E943E030E94D10188E2AD
:100D300090E00E9404040E94F1018FEF9FEBA1E27A
:100D400081509040A040E1F700C000000E94D10116
:100D500080E290E00E9404040E94F1018FEF9FEB7B
:100D6000A1E281509040A040E1F700C000008DE575
:100D700090E00E94B8020E94F1018FEF9FEBA1E288
:100D800081509040A040E1F700C000000E94D101D6
:100D90000E9475040E94F1018FEF9FEBA1E2815048
:100DA0009040A040E1F700C000000E94D10188E21D
:100DB00090E00E9404040E94F1018FEF9FEBA1E2FA
:100DC00081509040A040E1F700C000000E94D10196
:100DD00083E290E00E9404040E94F1018FEF9FEBF8
:100DE000A1E281509040A040E1F700C000008DE5F5
:100DF00090E00E94AD020E94F1018FEF9FEBA1E213
:100E000081509040A040E1F700C000000E94D10155
:100E10000E9475040E94F1018FEF9FEBA1E28150C7
:100E20009040A040E1F700C000000E94D10188E29C
:100E300090E00E9404040E94F1010E94D1010E94EE
:100E400075040E94F1018FEF9FEBA1E28150904069
:100E5000A040E1F700C000000E94D10188E290E0CC
:100E60000E9404040E94F1018FEF9FEBA1E28150E8
:100E70009040A040E1F700C000000E94B0048FEF56
:100E80009FEFA9E581509040A040E1F700C000002D
:100E90008FEF6FEF0E943E030E94D10188E290E045
:100EA0000E9404040E94F1018FEF9FEBA1E28150A8
:100EB0009040A040E1F700C000008FEF6FEF0E946C
:100EC0003E030E94D10180E290E00E9404040E944F
:100ED000F1018FEF9FEBA1E281509040A040E1F73C
:100EE00000C000008DE590E00E94AD020E94F1017B
:100EF0008FEF9FEBA1E281509040A040E1F700C04E
:100F000000008FEF6FEF0E943E030E94D1010E940C
:100F100075040E94F1018FEF9FEBA1E28150904098
:100F2000A040E1F700C000008FEF6FEF0E943E038A
:100F30000E94D10186E490E00E9404040E94F10125
:100F40008FEF9FEBA1E281509040A040E1F700C0FD
:100F500000000E94CC030E94F1018FEF9FEBA1E201
:100F600081509040A040E1F700C000008AE590E089
:100F70000E94AD020E94F1018FEF9FEBA1E2815030
:100F80009040A040E1F700C000008AE590E00E9498
:100F9000AD020E94F1018FEF9FEBA1E281509040E2
:100FA000A040E1F700C000008FEF6FEF0E943E030A
:100FB0000E94D1010E9475040E94F1018FEF9FEB06
:100FC000A1E281509040A040E1F700C000008FEF07
:100FD0006FEF0E943E030E94D10188E490E00E94DE
:100FE00004040E94F1018FEF9FEBA1E28150904039
:100FF000A040E1F700C000008DE590E00E94AD0246
:101000000E94F1018FEF9FEBA1E281509040A04040
:10101000E1F700C000008FEF6FEF0E943E030E94D7
:10102000D5010E9475040E94F1018FEF9FEBA1E2B0
:1010300081509040A040E1F700C0000008958DE08D
:101040000E94B103809318020E94F30090931A0249
:1010500080931902C3978336910508F0F4C08FEF8F
:101060006FEF0E943E030E94D10180E290E00E9457
:1010700004040E94F1018FEF9FEBA1E281509040A8
:10108000A040E1F700C000008DE590E00E94B802AA
:101090000E94F1018FEF9FEBA1E281509040A040B0
:1010A000E1F700C000008FEF6FEF0E943E030E9447
:1010B000D5018FE090E00E9404040E94F1018FEFBF
:1010C0009FEBA1E281509040A040E1F700C00000FA
:1010D0000E94CC030E94F1018FEF9FEBA1E28150AF
:1010E0009040A040E1F700C000000E94D50186E4D6
:1010F00090E00E9404048FEF6FEF0E943E030E9475
:10110000D10188E290E00E9404040E94F1018FEF77
:101110009FEBA1E281509040A040E1F700C00000A9
:101120000E94D10183E290E00E9404040E94F10138
:101130008FEF9FEBA1E281509040A040E1F700C00B
:1011400000008DE590E00E94B8020E94F1018FEF4F
:101150009FEBA1E281509040A040E1F700C0000069
:101160008FEF6FEF0E943E030E94D1010E94750431
:101170000E94F1018FEF9FEBA1E281509040A040CF
:10118000E1F700C000008FEF6FEF0E943E030E9466
:10119000D10188E290E00E9404040E94F1018FEFE7
:1011A0009FEBA1E281509040A040E1F700C0000019
:1011B0008FEF6FEF0E943E030E94D1010E947504E1
:1011C0000E94F1018FEF9FEBA1E281509040A0407F
:1011D000E1F700C000008FEF6FEF0E943E030E9416
:1011E000D10188E490E00E9404040E94F1018FEF95
:1011F0009FEBA1E281509040A040E1F700C00000C9
:101200008DE590E00E94AD020E94F1018FEF9FEB0F
:10121000A1E281509040A040E1F700C000008FEFB4
:101220006FEF0E943E030E94D1010E9475040E944C
:10123000F1018FEF9FEBA1E281509040A040E1F7D8
:1012400000C0000008950E94F1018FEF9FEBA1E222
:1012500081509040A040E1F700C000008AE590E096
:101260000E94AD020E94F1018FEF9FEBA1E281503D
:101270009040A040E1F700C000008AE590E00E94A5
:10128000AD020E94F1018FEF9FEBA1E281509040EF
:10129000A040E1F700C000008FEF6FEF0E943E0317
:1012A0000E94D1010E9475040E94F1018FEF9FEB13
:1012B000A1E281509040A040E1F700C000008FEF14
:1012C0006FEF0E943E030E94D10188E290E00E94ED
:1012D00004040E94F1018FEF9FEBA1E28150904046
:1012E000A040E1F700C000008FEF6FEF0E943E03C7
:1012F0000E94D1010E9475040E94F1018FEF9FEBC3
:10130000A1E281509040A040E1F700C000008FEFC3
:101310006FEF0E943E030E94D10188E490E00E949A
:1013200004040E94F1018FEF9FEBA1E281509040F5
:10133000A040E1F700C000008DE590E00E94AD0202
:101340000E94F1018FEF9FEBA1E281509040A040FD
:10135000E1F700C000008FEF6FEF0E943E030E9494
:10136000D1010E9475040E94F1018FEF9FEBA1E271
:1013700081509040A040E1F700C00000089589E04E
:101380000E94B103809318020E94F30090931A0206
:101390008093190223E08032920719F0823391057D
:1013A00018F40E94F101BFC19C0123533040233641
:1013B000310508F0F0C08FEF6FEF0E943E030E94EE
:1013C000D10180E290E00E9404040E94F1018FEFBD
:1013D0009FEBA1E281509040A040E1F700C00000E7
:1013E0008DE590E00E94AD020E94F1018FEF9FEB2E
:1013F000A1E281509040A040E1F700C000008FEFD3
:101400006FEF0E943E030E94D5018FE090E00E94A2
:1014100004040E94F1018FEF9FEBA1E28150904004
:10142000A040E1F700C000000E94CC030E94F1013F
:101430000E94D5010E9475048FEF6FEF0E943E035A
:101440000E94D10188E290E00E9404040E94F10110
:101450008FEF9FEBA1E281509040A040E1F700C0E8
:1014600000000E94D10183E290E00E9404040E94E7
:10147000F1018FEF9FEBA1E281509040A040E1F796
:1014800000C000008DE590E00E94AD020E94F101D5
:101490008FEF9FEBA1E281509040A040E1F700C0A8
:1014A00000000E94D1010E9475040E94F1018FEF9B
:1014B0009FEBA1E281509040A040E1F700C0000006
:1014C0000E94D10188E290E00E9404040E94F10190
:1014D0008FEF9FEBA1E281509040A040E1F700C068
:1014E00000000E94D10183E290E00E9404040E9467
:1014F000F1018FEF9FEBA1E281509040A040E1F716
:1015000000C000008DE590E00E94B8020E94F10149
:101510008FEF9FEBA1E281509040A040E1F700C027
:1015200000000E94D1010E9475040E94F1018FEF1A
:101530009FEBA1E281509040A040E1F700C0000085
:101540000E94D10188E290E00E9404040E94F1010F
:101550000E94D1010E9475040E94F1018FEF9FEB60
:10156000A1E281509040A040E1F700C000000E943D
:10157000D10188E290E00E9404040E94F1018FEF03
:101580009FEBA1E281509040A040E1F700C0000035
:101590000E941F089BC28D5291408539910508F029
:1015A000C2C08FEF6FEF0E943E030E94D10180E224
:1015B00090E00E9404040E94F1018FEF9FEBA1E2F2
:1015C00081509040A040E1F700C000008DE590E020
:1015D0000E94AD020E94F1018FEF9FEBA1E28150CA
:1015E0009040A040E1F700C000008FEF6FEF0E9435
:1015F0003E030E94D1010E9475040E94F1018FEF09
:101600009FEBA1E281509040A040E1F700C00000B4
:101610008FEF6FEF0E943E030E94D10186E490E0BD
:101620000E9404040E94F1018FEF9FEBA1E2815020
:101630009040A040E1F700C000000E94CC030E944F
:10164000F1018FEF9FEBA1E281509040A040E1F7C4
:1016500000C000008AE590E00E94AD020E94F10106
:101660008FEF9FEBA1E281509040A040E1F700C0D6
:1016700000008AE590E00E94AD020E94F1018FEF28
:101680009FEBA1E281509040A040E1F700C0000034
:101690008FEF6FEF0E943E030E94D1010E947504FC
:1016A0000E94F1018FEF9FEBA1E281509040A0409A
:1016B000E1F700C000008FEF6FEF0E943E030E9431
:1016C000D10188E490E00E9404040E94F1018FEFB0
:1016D0009FEBA1E281509040A040E1F700C00000E4
:1016E0008DE590E00E94AD020E94F1018FEF9FEB2B
:1016F000A1E281509040A040E1F700C000008FEFD0
:101700006FEF0E943E030E94D5010E9475040E9463
:10171000F1018FEF9FEBA1E281509040A040E1F7F3
:1017200000C00000D3C18DE00E94B1038093150278
:101730000E94F3009093170280931602A3E0803278
:101740009A0719F08233910518F40E94F101BEC185
:101750009C01235330402336310508F0F0C08FEF51
:101760006FEF0E943E030E94D10180E290E00E9450
:1017700004040E94F1018FEF9FEBA1E281509040A1
:10178000A040E1F700C000008DE590E00E94B802A3
:101790000E94F1018FEF9FEBA1E281509040A040A9
:1017A000E1F700C000008FEF6FEF0E943E030E9440
:1017B000D5018FE090E00E9404040E94F1018FEFB8
:1017C0009FEBA1E281509040A040E1F700C00000F3
:1017D0000E94CC030E94F1010E94D5010E94750471
:1017E0008FEF6FEF0E943E030E94D10188E290E0EC
:1017F0000E9404040E94F1018FEF9FEBA1E281504F
:101800009040A040E1F700C000000E94D10183E2B7
:1018100090E00E9404040E94F1018FEF9FEBA1E28F
:1018200081509040A040E1F700C000008DE590E0BD
:101830000E94B8020E94F1018FEF9FEBA1E281505C
:101840009040A040E1F700C000000E94D1010E943A
:1018500075040E94F1018FEF9FEBA1E2815090404F
:10186000A040E1F700C000000E94D10188E290E0B2
:101870000E9404040E94F1018FEF9FEBA1E28150CE
:101880009040A040E1F700C000000E94D10183E237
:1018900090E00E9404040E94F1018FEF9FEBA1E20F
:1018A00081509040A040E1F700C000008DE590E03D
:1018B0000E94AD020E94F1018FEF9FEBA1E28150E7
:1018C0009040A040E1F700C000000E94D1010E94BA
:1018D00075040E94F1018FEF9FEBA1E281509040CF
:1018E000A040E1F700C000000E94D10188E290E032
:1018F0000E9404040E94F1010E94D1010E9475041B
:101900000E94F1018FEF9FEBA1E281509040A04037
:10191000E1F700C000000E94D10188E290E00E943F
:1019200004040E94F1018FEF9FEBA1E281509040EF
:10193000A040E1F700C000000E94B004C7C08D5273
:1019400091408539910508F0C1C08FEF6FEF0E947B
:101950003E030E94D10180E290E00E9404040E94B4
:10196000F1018FEF9FEBA1E281509040A040E1F7A1
:1019700000C000008DE590E00E94B8020E94F101D5
:101980008FEF9FEBA1E281509040A040E1F700C0B3
:1019900000008FEF6FEF0E943E030E94D1010E9472
:1019A00075040E94F1018FEF9FEBA1E281509040FE
:1019B000A040E1F700C000008FEF6FEF0E943E03F0
:1019C0000E94D10186E490E00E9404040E94F1018B
:1019D0008FEF9FEBA1E281509040A040E1F700C063
:1019E00000000E94CC030E94F1018FEF9FEBA1E267
:1019F00081509040A040E1F700C000008AE590E0EF
:101A00000E94B8020E94F1018FEF9FEBA1E281508A
:101A10009040A040E1F700C000008AE590E00E94FD
:101A2000B8020E94F1018FEF9FEBA1E2815090403C
:101A3000A040E1F700C000008FEF6FEF0E943E036F
:101A40000E94D1010E9475040E94F1018FEF9FEB6B
:101A5000A1E281509040A040E1F700C000008FEF6C
:101A60006FEF0E943E030E94D10188E490E00E9443
:101A700004040E94F1018FEF9FEBA1E2815090409E
:101A8000A040E1F700C000008DE590E00E94B802A0
:101A90000E94F1018FEF9FEBA1E281509040A040A6
:101AA000E1F700C000008FEF6FEF0E943E030E943D
:101AB000D5010E9475040E94F1018FEF9FEBA1E216
:101AC00081509040A040E1F700C000000E94F10169
:101AD0008FEF9FEBA1E281509040A040E1F700C062
:101AE000000008958FEF6FEF0E943E030E94D10126
:101AF00080E290E00E9404040E94F1018FEF9FEBCE
:101B0000A1E281509040A040E1F700C000008DE5C7
:101B100090E00E94AD020E94F1018FEF9FEBA1E2E5
:101B200081509040A040E1F700C000008FEF6FEFC0
:101B30000E943E030E94D5018FE090E00E940404C1
:101B40000E94F1018FEF9FEBA1E281509040A040F5
:101B5000E1F700C000000E94CC030E94F1010E9446
:101B6000D5010E9475048FEF6FEF0E943E030E9423
:101B7000D10188E290E00E9404040E94F1018FEFFD
:101B80009FEBA1E281509040A040E1F700C000002F
:101B90000E94D10183E290E00E9404040E94F101BE
:101BA0008FEF9FEBA1E281509040A040E1F700C091
:101BB00000008DE590E00E94AD020E94F1018FEFE0
:101BC0009FEBA1E281509040A040E1F700C00000EF
:101BD0000E94D1010E9475040E94F1018FEF9FEBDA
:101BE000A1E281509040A040E1F700C000000E94B7
:101BF000D10188E290E00E9404040E94F1018FEF7D
:101C00009FEBA1E281509040A040E1F700C00000AE
:101C10000E94D10183E290E00E9404040E94F1013D
:101C20008FEF9FEBA1E281509040A040E1F700C010
:101C300000008DE590E00E94B8020E94F1018FEF54
:101C40009FEBA1E281509040A040E1F700C000006E
:101C50000E94D1010E9475040E94F1018FEF9FEB59
:101C6000A1E281509040A040E1F700C000000E9436
:101C7000D10188E290E00E9404040E94F1010E94D8
:101C8000D1010E9475040E94F1018FEF9FEBA1E248
:101C900081509040A040E1F700C000000E94D101B7
:101CA00088E290E00E9404040E94F1018FEF9FEB14
:101CB000A1E281509040A040E1F700C000000E94E6
:101CC0001F088FEF9FEBA1E281509040A040E1F709
:101CD00000C000008FEF6FEF0E943E030E94D10111
:101CE00088E290E00E9404040E94F1018FEF9FEBD4
:101CF000A1E281509040A040E1F700C000008FEFCA
:101D00006FEF0E943E030E94D10180E290E00E94AA
:101D100004040E94F1018FEF9FEBA1E281509040FB
:101D2000A040E1F700C000008DE590E00E94B802FD
:101D30000E94F1018FEF9FEBA1E281509040A04003
:101D4000E1F700C000008FEF6FEF0E943E030E949A
:101D5000D1010E9475040E94F1018FEF9FEBA1E277
:101D600081509040A040E1F700C000008FEF6FEF7E
:101D70000E943E030E94D10186E490E00E94040488
:101D80000E94F1018FEF9FEBA1E281509040A040B3
:101D9000E1F700C000000E94CC030E94F1018FEF28
:101DA0009FEBA1E281509040A040E1F700C000000D
:101DB0008AE590E00E94B8020E94F1018FEF9FEB4C
:101DC000A1E281509040A040E1F700C000008AE508
:101DD00090E00E94B8020E94F1018FEF9FEBA1E218
:101DE00081509040A040E1F700C000008FEF6FEFFE
:101DF0000E943E030E94D1010E9475040E94F101DD
:101E00008FEF9FEBA1E281509040A040E1F700C02E
:101E100000008FEF6FEF0E943E030E94D10188E423
:101E200090E00E9404040E94F1018FEF9FEBA1E279
:101E300081509040A040E1F700C000008DE590E0A7
:101E40000E94B8020E94F1018FEF9FEBA1E2815046
:101E50009040A040E1F700C000008FEF6FEF0E94BC
:101E60003E030E94D5010E9475040E94F1018FEF8C
:101E70009FEBA1E281509040A040E1F700C000003C
:101E800008958FEF6FEF0E943E030E94D10180E220
:101E900090E00E9404040E94F1018FEF9FEBA1E209
:101EA00081509040A040E1F700C000008DE590E037
:101EB0000E94AD020E94F1018FEF9FEBA1E28150E1
:101EC0009040A040E1F700C000008FEF6FEF0E944C
:101ED0003E030E94D5018FE090E00E9404040E941E
:101EE000F1018FEF9FEBA1E281509040A040E1F71C
:101EF00000C000000E94CC030E94F1010E94D501A5
:101F00000E9475048FEF6FEF0E943E030E94D10183
:101F100088E290E00E9404040E94F1018FEF9FEBA1
:101F2000A1E281509040A040E1F700C000000E9473
:101F3000D10183E290E00E9404040E94F1018FEF3E
:101F40009FEBA1E281509040A040E1F700C000006B
:101F50008DE590E00E94AD020E94F1018FEF9FEBB2
:101F6000A1E281509040A040E1F700C000000E9433
:101F7000D1010E9475040E94F1018FEF9FEBA1E255
:101F800081509040A040E1F700C000000E94D101C4
:101F900088E290E00E9404040E94F1018FEF9FEB21
:101FA000A1E281509040A040E1F700C000000E94F3
:101FB000D10183E290E00E9404040E94F1018FEFBE
:101FC0009FEBA1E281509040A040E1F700C00000EB
:101FD0008DE590E00E94B8020E94F1018FEF9FEB27
:101FE000A1E281509040A040E1F700C000000E94B3
:101FF000D1010E9475040E94F1018FEF9FEBA1E2D5
:1020000081509040A040E1F700C000000E94D10143
:1020100088E290E00E9404040E94F1010E94D10134
:102020000E9475040E94F1018FEF9FEBA1E28150A5
:102030009040A040E1F700C000000E94D10188E27A
:1020400090E00E9404040E94F1018FEF9FEBA1E257
:1020500081509040A040E1F700C000000E941F089E
:102060008FEF9FEBA1E281509040A040E1F700C0CC
:1020700000008FEF6FEF0E943E030E94D10188E2C3
:1020800090E00E9404040E94F1018FEF9FEBA1E217
:1020900081509040A040E1F700C000008FEF6FEF4B
:1020A0000E943E030E94D10180E290E00E9404045D
:1020B0000E94F1018FEF9FEBA1E281509040A04080
:1020C000E1F700C000008DE590E00E94B8020E9498
:1020D000F1018FEF9FEBA1E281509040A040E1F72A
:1020E00000C000008FEF6FEF0E943E030E94D501F9
:1020F0008FE090E00E9404040E94F1018FEF9FEBBB
:10210000A1E281509040A040E1F700C000000E9491
:10211000CC030E94F1010E94D5010E9475048FEF4B
:102120006FEF0E943E030E94D10188E290E00E947E
:1021300004040E94F1018FEF9FEBA1E281509040D7
:10214000A040E1F700C000000E94D10180E290E0D1
:102150000E9404040E94F1018FEF9FEBA1E28150E5
:102160009040A040E1F700C000008DE590E00E94A3
:10217000B8020E94F1018FEF9FEBA1E281509040E5
:10218000A040E1F700C000000E94D1010E94750448
:102190000E94F1018FEF9FEBA1E281509040A0409F
:1021A000E1F700C000000E94D10188E290E00E94A7
:1021B00004040E94F1018FEF9FEBA1E28150904057
:1021C000A040E1F700C000000E94D10183E290E04E
:1021D0000E9404040E94F1018FEF9FEBA1E2815065
:1021E0009040A040E1F700C000008DE590E00E9423
:1021F000AD020E94F1018FEF9FEBA1E28150904070
:10220000A040E1F700C000000E94D1010E947504C7
:102210000E94F1018FEF9FEBA1E281509040A0401E
:10222000E1F700C000000E94D10188E290E00E9426
:1022300004040E94F1010E94D1010E9475040E94D1
:10224000F1018FEF9FEBA1E281509040A040E1F7B8
:1022500000C000000E94D10188E290E00E940404C6
:102260000E94F1018FEF9FEBA1E281509040A040CE
:10227000E1F700C000000E94B0048FEF9FEFA9E5D6
:1022800081509040A040E1F700C00000089589E02F
:102290000E94B103809318020E94F30090931A02E7
:1022A000809319028DE00E94B103809315020E9471
:1022B000F300909317028093160220911902309137
:1022C0001A02A9014353504043365105A0F4833309
:1022D000910530F08639910518F40E94410F1CC019
:1022E00041E08D32940738F0A1E0823C9A0718F45F
:1022F0000E94720D11C0C3978336910558F4B1E066
:102300002D323B0738F041E0223C340718F40E949C
:10231000500602C00E94BF098FEF6FEF0E943E037C
:102320000E94D10188E290E00E9404040E94F10121
:102330008FEF9FEBA1E281509040A040E1F700C0F9
:1023400000008FEF6FEF0E943E030E94D1010E94B8
:1023500075040E94F1018FEF9FEBA1E28150904044
:10236000A040E1F700C000008FEF6FEF0E943E0336
:102370000E94D10188E290E00E9404040E94F101D1
:102380008FEF9FEBA1E281509040A040E1F700C0A9
:10239000000008950E94471108950E94F7020E94CC
:1023A00043030E944A038AE50E94510381E00E9490
:1023B0006A038FEF6FEF0E943E030E94D1010E94DB
:1023C00075040E94F1018FEF9FEBA1E281509040D4
:1023D000A040E1F700C000008FEF6FEF0E943E03C6
:1023E0000E94D10188E290E00E9404040E94F10161
:1023F0008FEF9FEBA1E281509040A040E1F700C039
:1024000000000E94CA1180E090E008955058BB2758
:10241000AA270ED04DC13ED130F043D120F031F487
:102420009F3F11F41EF433C10EF4E095E7FB29C180
:10243000E92F4FD180F3BA17620773078407950716
:1024400018F071F49EF567C10EF4E0950B2EBA2FCB
:10245000A02D0B01B90190010C01CA01A0011124AA
:10246000FF27591B99F0593F50F4503E68F11A1656
:10247000F040A22F232F342F4427585FF3CF4695E7
:1024800037952795A795F0405395C9F77EF41F1609
:10249000BA0B620B730B840BBAF09150A1F0FF0FD3
:1024A000BB1F661F771F881FC2F70EC0BA0F621FBF
:1024B000731F841F48F4879577956795B795F795AF
:1024C0009E3F08F0B3CF9395880F08F09927EE0F41
:1024D0009795879508950CD0EBC0E3D040F0DAD003
:1024E00030F021F45F3F19F0CCC0511115C1CFC0BD
:1024F000F0D098F39923C9F35523B1F3951B550BED
:10250000BB27AA2762177307840738F09F5F5F4FC6
:10251000220F331F441FAA1FA9F333D00E2E3AF007
:10252000E0E830D091505040E695001CCAF729D021
:10253000FE2F27D0660F771F881FBB1F2617370770
:102540004807AB07B0E809F0BB0B802DBF01FF27A0
:1025500093585F4F2AF09E3F510568F092C0DCC04F
:102560005F3FECF3983EDCF3869577956795B795DA
:10257000F7959F5FC9F7880F911D9695879597F9F5
:102580000895E1E0660F771F881FBB1F621773076E
:102590008407BA0720F0621B730B840BBA0BEE1F83
:1025A00088F7E095089504D06894B111B5C00895F6
:1025B00098D088F09F5790F0B92F9927B751A0F085
:1025C000D1F0660F771F881F991F1AF0BA95C9F7C7
:1025D00012C0B13081F09FD0B1E008959CC0672F48
:1025E000782F8827B85F39F0B93FCCF38695779577
:1025F0006795B395D9F73EF4909580957095619560
:102600007F4F8F4F9F4F0895E89409C097FB3EF48A
:1026100090958095709561957F4F8F4F9F4F99232F
:10262000A9F0F92F96E9BB279395F69587957795AD
:102630006795B795F111F8CFFAF4BB0F11F460FF6D
:102640001BC06F5F7F4F8F4F9F4F16C0882311F0C5
:1026500096E911C0772321F09EE8872F762F05C0D9
:10266000662371F096E8862F70E060E02AF09A9574
:10267000660F771F881FDAF7880F9695879597F969
:10268000089597F99F6780E870E060E008959FEFF4
:1026900080EC089500240A941616170618060906F9
:1026A000089500240A9412161306140605060895C8
:1026B000092E0394000C11F4882352F0BB0F40F450
:1026C000BF2B11F460FF04C06F5F7F4F8F4F9F4F90
:1026D000089557FD9058440F551F59F05F3F71F012
:1026E0004795880F97FB991F61F09F3F79F0879579
:1026F0000895121613061406551FF2CF4695F1DF02
:1027000008C0161617061806991FF1CF8695710591
:10271000610508940895E894BB2766277727CB01C5
:1027200097F908950BD0C4CFB5DF28F0BADF18F0C1
:10273000952309F0A6CFABCF1124EECFCADFA0F3CB
:10274000959FD1F3950F50E0551F629FF001729F46
:10275000BB27F00DB11D639FAA27F00DB11DAA1F65
:10276000649F6627B00DA11D661F829F2227B00DB2
:10277000A11D621F739FB00DA11D621F839FA00D3D
:10278000611D221F749F3327A00D611D231F849F8D
:10279000600D211D822F762F6A2F11249F575040E4
:1027A0008AF0E1F088234AF0EE0FFF1FBB1F661F7F
:1027B000771F881F91505040A9F79E3F510570F038
:1027C00060CFAACF5F3FECF3983EDCF38695779518
:1027D0006795B795F795E7959F5FC1F7FE2B880F33
:1027E000911D9695879597F90895FA01EE0FFF1FB1
:1027F00030962105310599F16115710561F4803834
:10280000BFE39B0749F168949038810561F08038F7
:10281000BFEF9B0741F0992342F5FF3FE1053105EA
:10282000210511F1E8940894E795D901AA2329F428
:10283000AB2FBE2FF85FD0F310C0FF5F70F4A695EA
:10284000E0F7F73950F019F0FF3A38F49F779F938B
:102850000CD00F9007FC905808953EF018CF60E020
:1028600070E080E89FE308954FE79F775F934F9371
:102870003F932F939ED02F913F914F915F9152DFC5
:1028800005C019F40EF0FDCE46CF01CF2ADFC8F304
:102890009638C0F707F80F92E8942BE33AEA48EB32
:1028A0005FE74EDF0F920F920F924DB75EB70F9218
:1028B000C0D0E4EEF0E016D04F915F91EF91FF9120
:1028C000E595EE1FFF1F49F0FE57E0684427EE0F25
:1028D000441FFA95E1F74195550B32D00F9007FE52
:1028E00026C00895DF93CF931F930F93FF92EF922B
:1028F000DF927B018C01689405C0DA2EEF011EDFA8
:10290000FE01E894A5912591359145915591AEF33D
:10291000EF018EDDFE019701A801DA9479F7DF90CF
:10292000EF90FF900F911F91CF91DF9108959B0140
:10293000AC0160E070E080E89FE3CDCDA2CEACC0FA
:10294000D0DEE8F39923D9F3940F511DBBF39150D6
:10295000504094F059F0882332F0660F771F881F9B
:1029600091505040C1F79E3F510544F7880F911D8B
:102970009695879597F908955F3FACF0983E9CF047
:10298000BB27869577956795B79508F4B1609395C1
:10299000C1F7BB0F58F711F460FFE8CF6F5F7F4FAF
:1029A0008F4F9F4FE3CFB8CE0EF076C070CE6894B5
:1029B00068CE97DEC8F39923D1F3C6F3DF93CF93A4
:1029C0001F930F93FF92C92FDD2788232AF02197A9
:1029D000660F771F881FDAF720E030E040E85FEBF2
:1029E0009FE3883920F0803E30F021968F770FDD0D
:1029F000ECE0F1E003C00BDDE9E3F1E073DF8B0114
:102A0000BE01EC01FB2E6F5771097595771F880B7E
:102A1000990BFCDD28E132E741E35FE38FDEAF2D68
:102A20009801AE01FF900F911F91CF91DF9100DDD2
:102A30003FCEFA01DC01AA0FBB1F9B01AC01BF57BF
:102A400028F422273327442750781FC0B75188F431
:102A5000AB2F0024469537952795011CA395D2F3FB
:102A6000002069F0220F331F441FB395DAF30DD015
:102A7000CDCC61307105A0E88A07B94630F49B01DE
:102A8000AC016627772788279078309621F020833D
:102A900031834283538308959F3F31F0915020F456
:102AA000879577956795B795880F911D969587952A
:082AB00097F90895F894FFCF97
:00000001FF
